:020000040800F2
:1000000000C00020A10300083D0300083F030008D2
:1000100041030008430300084503000800000000F6
:10002000000000000000000000000000470300087E
:1000300049030008000000004B0300084D030008BE
:10004000E9030008E9030008E9030008E9030008E0
:10005000E9030008E9030008E9030008E9030008D0
:10006000E9030008E9030008E9030008E9030008C0
:10007000E9030008E9030008E9030008E9030008B0
:10008000E9030008E9030008E9030008E9030008A0
:10009000E9030008E9030008E9030008E903000890
:1000A000E9030008E9030008E9030008E903000880
:1000B000E9030008E9030008E9030008E903000870
:1000C000E9030008E9030008E9030008E903000860
:1000D000E9030008E9030008E9030008E903000850
:1000E000E9030008E9030008E9030008E903000840
:1000F000E9030008E9030008E9030008E903000830
:10010000E9030008E9030008E9030008E90300081F
:10011000E9030008E9030008E9030008E90300080F
:10012000E9030008E9030008E9030008E9030008FF
:1001300000000000000000000000000000000000BF
:1001400000000000000000000000000000000000AF
:10015000000000000000000000000000000000009F
:10016000000000000000000000000000000000008F
:10017000000000000000000000000000000000007F
:10018000000000000000000000000000000000006F
:10019000000000000000000000000000000000005F
:1001A000000000000000000000000000000000004F
:1001B000000000000000000000000000000000003F
:1001C000000000000000000000000000000000002F
:1001D000000000000000000000000000000000001F
:0401E0005FF8E0F1F3
:1001E40010B5054C237833B9044B13B10448AFF36D
:1001F40000800123237010BD3C0400200000000097
:10020400580F000808B5034B1BB103490348AFF36B
:10021400008008BD0000000040040020580F0008C2
:1002240030B589B0002404940594069407941A4BBD
:100234009A6942F020029A619A6902F020020192BE
:10024400019A9A6942F010029A619A6902F01002C6
:100254000292029A9A6942F004029A619B6903F03D
:1002640004030393039B0D4D01220421284600F04F
:100274007DFA22460821284600F078FA0C230493DC
:100284000123059306940223079304A9284600F04A
:1002940051F909B030BD00BF001002400010014008
:1002A40010B590B02422002107A800F093FD00248B
:1002B4000194029403940494059402230693012365
:1002C4000A9310230B9306A800F06CFA0F230193F2
:1002D4000294039404940594214601A800F0A0FC20
:1002E40010B010BD08B500F0A5F8FFF7D9FFFFF76F
:1002F40097FFFEE782B00E4B9A6942F001029A61C1
:100304009A6902F001020092009ADA6942F080527E
:10031400DA61DB6903F080530193019B054A53685A
:1003240023F0E06343F00073536002B0704700BFF2
:1003340000100240000001407047FEE7FEE7FEE7C0
:10034400FEE770477047704708B500F085F808BDB0
:100354000F4B1A6842F001021A6059680D4A0A40AC
:100364005A601A6822F0847222F480321A601A6881
:1003740022F480221A605A6822F4FE025A604FF472
:100384001F029A60044B4FF000629A60704700BFEE
:10039400001002400000FFF800ED00E0002103E03F
:1003A4000B4B5B58435004310A480B4B42189A429A
:1003B400F6D30A4A02E0002342F8043B084B9A426F
:1003C400F9D3FFF7C5FF00F0E1FCFFF78BFF70479F
:1003D400A40F0008000000203C0400203C0400207E
:1003E40080040020FEE7000010B504460E4B187888
:1003F4004FF47A73B3FBF0F30C4A1068B0FBF3F0DC
:1004040000F082F868B90F2C01D901200AE000221B
:1004140021464FF0FF3000F043F8054B1C600020EC
:1004240000E0012010BD00BF0400002000000020F7
:100434000800002008B5074A136843F0100313604E
:10044400032000F01BF80020FFF7CEFFFFF752FF58
:10045400002008BD00200240034A1168034B1B78AA
:100464000B441360704700BF5804002004000020B0
:10047400014B1868704700BF58040020074AD3682E
:1004840023F4E0631B041B0C000200F4E06003434C
:1004940043F0BF6343F40033D360704700ED00E0E2
:1004A40030B4174BDB68C3F30223C3F10704042CF5
:1004B40028BF04241D1D062D18D9033B4FF0FF351A
:1004C40005FA04F421EA0401994005FA03F322EA47
:1004D4000303194300280BDB0901C9B200F1604092
:1004E40000F5614080F8001330BC70470023E5E755
:1004F40000F00F000901C9B2024B1954F4E700BF20
:1005040000ED00E014ED00E00138B0F1807F0AD284
:10051400064B5860064AF02182F8231000209860A8
:1005240007221A6070470120704700BF10E000E006
:1005340000ED00E0F0B482B000252C46ABE0854F1E
:10054400BB4210D007D9844FBB420CD007F580378B
:10055400BB4208D013E0A7F58017BB4203D007F5D0
:100564007027BB4207D18B68002B60D0012B59D078
:100574004261082503E0A7F58017BB42F3D0FF2EA4
:1005840057D88446FF2E57D8A200DCF800300F2736
:10059400974023EA070305FA02F21343CCF800302C
:1005A4004B6813F0805F75D06C4B9A6942F001027E
:1005B4009A619B6903F001030193019BA208971CB4
:1005C400674B53F827C004F003039F000F23BB407D
:1005D4002CEA030C634B984234D003F580639842B1
:1005E40000F0948003F58063984200F0918003F555
:1005F4008063984200F08E8003F58063984200F097
:100604008B8003F5806398421AD006231BE0CD68E3
:10061400B5E7CD680435B2E7CD680835AFE7CD68F6
:100624000C35ACE702610825A9E70025A7E70425F6
:10063400A5E700F1040CA5E7A4F108029200A4E7E1
:10064400052300E00023BB4043EA0C030232444F7D
:1006540047F822304B6813F4803F5FD0424A136856
:10066400334313604B6813F4003F5DD03E4A536834
:10067400334353604B6813F4801F5BD03A4A93684A
:10068400334393604B6813F4001F59D0364AD36840
:100694001E43D66001340B6833FA04F256D00122AB
:1006A400A24003EA020632EA0303F3D14B68122B99
:1006B4003FF645AF122B3FF662AF01A757F823F080
:1006C4006B050008130600081D0600082F06000825
:1006D40083050008830500088305000883050008D6
:1006E40083050008830500088305000883050008C6
:1006F40083050008830500088305000883050008B6
:1007040083050008170600082306000801239AE75A
:10071400022398E7032396E7042394E7124A136815
:1007240023EA060313609DE70F4A536823EA06038E
:1007340053609FE70C4A936823EA06039360A1E79A
:10074400094AD36823EA0606D660A3E702B0F0BCE0
:10075400704700BF0000221000003110001002405A
:100764000000014000080140000401400AB1016199
:10077400704709040161704782B0084B1B68084A3E
:10078400A2FB03235B0A00FB03F3019300BF019B5D
:100794005A1E0192002BF9D102B0704700000020CC
:1007A400D34D6210002800F0F18170B582B0044688
:1007B400036813F0010F2CD0AA4B5B6803F00C0301
:1007C400042B1DD0A74B5B6803F00C03082B12D03D
:1007D4006368B3F5803F41D0002B55D103F18043CA
:1007E40003F504331A6822F480321A601A6822F47A
:1007F40080221A6037E09B4B5B6813F4803FE7D09C
:10080400984B1B6813F4003F03D06368002B00F07F
:10081400BF81236813F0020F75D0924B5B6813F00D
:100824000C0F5FD08F4B5B6803F00C03082B54D084
:100834002369002B00F089808B4B01221A60FFF79B
:1008440017FE0546874B1B6813F0020F74D1FFF7A0
:100854000FFE401B0228F5D903209EE1814A13684C
:1008640043F480331360636843B3FFF701FE054626
:100874007C4B1B6813F4003FCBD1FFF7F9FD401B01
:100884006428F5D9032088E1B3F5A02F09D0754B6E
:100894001A6822F480321A601A6822F480221A60DC
:1008A400E1E703F18043A3F53C331A6842F4802264
:1008B4001A601A6842F480321A60D4E7FFF7D8FD50
:1008C4000546684B1B6813F4003FA2D0FFF7D0FD28
:1008D400401B6428F5D903205FE1624B5B6813F485
:1008E400803FA5D15F4B1B6813F0020F03D023692F
:1008F400012B40F04F815B4A136823F0F8036169D0
:1009040043EAC1031360236813F0080F32D0A369CC
:10091400002B45D0554B01221A60FFF7A9FD05466F
:10092400504B5B6A13F0020F21D1FFF7A1FD401B6E
:100934000228F5D9032030E14A4A136823F0F8036A
:10094400616943EAC1031360DDE7474B00221A6083
:10095400FFF78EFD0546434B1B6813F0020FD2D000
:10096400FFF786FD401B0228F5D9032015E101207D
:10097400FFF702FF236813F0040F00F09780394B50
:10098400DB6913F0805F1DD1364BDA6942F0805287
:10099400DA61DB6903F080530193019B012512E0C6
:1009A400324B00221A60FFF763FD05462D4B5B6A4C
:1009B40013F0020FDED0FFF75BFD401B0228F5D9D0
:1009C4000320EAE000252A4B1B6813F4807F11D032
:1009D400E368012B22D0002B38D103F1804303F5C7
:1009E40004331A6A22F001021A621A6A22F004021B
:1009F4001A6218E01E4A136843F480731360FFF709
:100A040037FD06461A4B1B6813F4807FE0D1FFF7CD
:100A14002FFD801B6428F5D90320BEE0114A136A18
:100A240043F001031362E36873B3FFF721FD064645
:100A34000C4B1B6A13F0020F37D1FFF719FD801B13
:100A440041F288339842F3D90320A6E0052B11D054
:100A5400044B1A6A22F001021A621A6A22F0040292
:100A64001A62E0E700100240000042428004424261
:100A7400007000404D4B1A6A42F004021A621A6A6E
:100A840042F001021A62CEE7FFF7F2FC0646474B3A
:100A94001B6A13F0020F08D0FFF7EAFC801B41F237
:100AA40088339842F3D9032077E0E5B9E369002B52
:100AB40072D03E4A526802F00C02082A56D0022B29
:100AC40017D03B4B00221A60FFF7D2FC0446374B89
:100AD4001B6813F0007F47D0FFF7CAFC001B0228F5
:100AE400F5D9032059E0314AD36923F08053D36107
:100AF400DCE72F4B00221A60FFF7BAFC05462B4BAC
:100B04001B6813F0007F06D0FFF7B2FC401B0228DD
:100B1400F5D9032041E0236AB3F5803F1AD0234975
:100B24004B6823F47413226A606A024313434B60D4
:100B34001F4B01221A60FFF79BFC04461B4B1B68EA
:100B440013F0007F0ED1FFF793FC001B0228F5D9A8
:100B5400032022E0154A536823F40033A1680B43B1
:100B64005360DCE7002018E0002016E0012B16D0CB
:100B74000E4B5B6803F48031226A914211D103F475
:100B84007013626A93420ED1002006E00120704780
:100B9400012002E0012000E0002002B070BD01202D
:100BA400FBE70120F9E70120F7E700BF001002404E
:100BB4006000424286B0164B0FCB0DF1180C0CE9C5
:100BC4000F0040F20123ADF80430124B5B6803F0D0
:100BD4000C02082A02D0104806B07047C3F38342BF
:100BE400624412F8102C13F4803F0CD0094B5B685C
:100BF400C3F34043634413F8143C074800FB02F07A
:100C0400B0FBF3F0E8E7054800FB02F0E4E700BFBF
:100C1400800F00080010024000127A0000093D0015
:100C2400002800F0A08070B50D460446524B1B68A6
:100C340003F007038B420BD24F4A136823F00703D8
:100C44000B431360136803F007038B4240F08D805D
:100C5400236813F0020F17D013F0040F04D0474A8F
:100C6400536843F4E0635360236813F0080F04D01F
:100C7400424A536843F460535360404A536823F034
:100C8400F003A1680B435360236813F0010F31D0C4
:100C94006368012B20D0022B25D0384A126812F049
:100CA400020F64D035494A6822F0030213434B60B3
:100CB400FFF7DEFB0646314B5B6803F00C0362680A
:100CC400B3EB820F16D0FFF7D3FB801B41F28833BE
:100CD4009842F0D9032045E0284A126812F4003FF4
:100CE400E0D101203EE0254A126812F0007FD9D1FC
:100CF400012037E0204B1B6803F00703AB420AD9FD
:100D04001D4A136823F007032B431360136803F091
:100D14000703AB422DD1236813F0040F06D0174A02
:100D2400536823F4E063E1680B435360236813F0D2
:100D3400080F07D0114A536823F46053216943EA2A
:100D4400C1035360FFF736FF0C4B5B68C3F3031317
:100D54000B4AD35CD8400B4B18600B4B1868FFF759
:100D640043FB002070BD012070470120FAE70120F9
:100D7400F8E70120F6E700BF00200240001002401F
:100D8400700F0008000000200800002070B50D4E10
:100D94000D4D761BB61006D0002455F8043B0134E3
:100DA4009847A642F9D1094E094D00F0D3F8761BB5
:100DB400B61006D0002455F8043B01349847A642E7
:100DC400F9D170BD980F0008980F0008A00F000813
:100DD400980F0008F0B4860746D0541E002A3CD071
:100DE4000346CAB201E0013C37D303F8012B9D0747
:100DF400F9D1032C2AD9CDB245EA05250F2C45EAB1
:100E0400054534D9A4F1100222F00F0C03F1200798
:100E14001609674403F1100242E9045542E90255F8
:100E24001032BA42F8D1721C14F00C0F03EB021208
:100E340004F00F0613D0331F23F0030304331344C9
:100E440042F8045B9342FBD106F003042CB1CAB20E
:100E54001C4403F8012B9C42FBD1F0BC7047344680
:100E64001346002CF3D1F8E714460346C1E71A46AB
:100E74002646E0E7024B13B1024800F005B870477C
:100E840000000000990E0008002301461A46184687
:100E940000F01AB838B5084B084D5B1B9C1007D0FE
:100EA400043B1D44013C55F804399847002CF9D102
:100EB400BDE8384000F054B8A40F0008A00F0008A3
:100EC400704700BF704700BF2DE9F047DFF880A0EE
:100ED4000646DAF8000098460F469146FFF7F0FF01
:100EE4001A4B1B68D3F8484124B365681F2D26DCD0
:100EF4005EB96B1C0235DAF80000636044F82570B3
:100F0400FFF7E0FF0020BDE8F087012304EB850133
:100F1400C1F88890D4F88821AB401A43022EC4F853
:100F24008821C1F80881E4D1D4F88C211343C4F892
:100F34008C31DEE703F5A674C3F84841D5E7DAF847
:100F44000000FFF7BFFF4FF0FF30DCE7940F00080D
:100F540038040020F8B500BFF8BC08BC9E467047B2
:0C0F6400F8B500BFF8BC08BC9E46704702
:100F70000000000000000000010203040607080949
:100F800002030405060708090A0B0C0D0E0F1010CA
:080F9000000000001000002029
:080F9800790E000809020008AF
:040FA000E50100085F
:100FA4000024F40001000000100000000000000014
:100FB40000000000FC02002064030020CC03002099
:100FC400000000000000000000000000000000001D
:100FD400000000000000000000000000000000000D
:100FE40000000000000000000000000000000000FD
:100FF40000000000000000000000000000000000ED
:1010040000000000000000000000000000000000DC
:1010140000000000000000000000000000000000CC
:1010240000000000000000000000000000000000BC
:1010340000000000000000000000000000000000AC
:10104400000000000000000000000000000000009C
:10105400000000000000000001000000000000008B
:101064000E33CDAB34126DE6ECDE05000B00000050
:10107400000000000000000000000000000000006C
:10108400000000000000000000000000000000005C
:10109400000000000000000000000000000000004C
:1010A400000000000000000000000000000000003C
:0C13D40000000000000000005C0400208D
:04000005080003A14B
:00000001FF
